{
  "_format": "hh-sol-artifact-1",
  "contractName": "DecentralizedResource",
  "sourceName": "contracts/DecentralisedResource.sol",
  "abi": [
    {
      "inputs": [
        {
          "internalType": "address",
          "name": "_tokenAddress",
          "type": "address"
        }
      ],
      "stateMutability": "nonpayable",
      "type": "constructor"
    },
    {
      "anonymous": false,
      "inputs": [
        {
          "indexed": true,
          "internalType": "uint256",
          "name": "listingId",
          "type": "uint256"
        },
        {
          "indexed": false,
          "internalType": "address",
          "name": "seller",
          "type": "address"
        },
        {
          "indexed": false,
          "internalType": "uint256",
          "name": "amount",
          "type": "uint256"
        },
        {
          "indexed": false,
          "internalType": "uint256",
          "name": "pricePerUnit",
          "type": "uint256"
        }
      ],
      "name": "EnergyListed",
      "type": "event"
    },
    {
      "anonymous": false,
      "inputs": [
        {
          "indexed": true,
          "internalType": "uint256",
          "name": "listingId",
          "type": "uint256"
        },
        {
          "indexed": false,
          "internalType": "address",
          "name": "buyer",
          "type": "address"
        },
        {
          "indexed": false,
          "internalType": "uint256",
          "name": "amount",
          "type": "uint256"
        }
      ],
      "name": "EnergyPurchased",
      "type": "event"
    },
    {
      "anonymous": false,
      "inputs": [
        {
          "indexed": true,
          "internalType": "address",
          "name": "user",
          "type": "address"
        },
        {
          "indexed": false,
          "internalType": "uint256",
          "name": "amount",
          "type": "uint256"
        }
      ],
      "name": "WithdrawalMade",
      "type": "event"
    },
    {
      "inputs": [
        {
          "internalType": "uint256",
          "name": "",
          "type": "uint256"
        }
      ],
      "name": "allPurchases",
      "outputs": [
        {
          "internalType": "address",
          "name": "buyer",
          "type": "address"
        },
        {
          "internalType": "uint256",
          "name": "amount",
          "type": "uint256"
        },
        {
          "internalType": "uint256",
          "name": "price",
          "type": "uint256"
        }
      ],
      "stateMutability": "view",
      "type": "function"
    },
    {
      "inputs": [
        {
          "internalType": "uint256",
          "name": "_index",
          "type": "uint256"
        },
        {
          "internalType": "uint256",
          "name": "_amount",
          "type": "uint256"
        }
      ],
      "name": "buyEnergy",
      "outputs": [
        {
          "internalType": "bool",
          "name": "",
          "type": "bool"
        }
      ],
      "stateMutability": "payable",
      "type": "function"
    },
    {
      "inputs": [
        {
          "internalType": "address",
          "name": "_user",
          "type": "address"
        }
      ],
      "name": "energyBalance",
      "outputs": [
        {
          "internalType": "uint256",
          "name": "",
          "type": "uint256"
        }
      ],
      "stateMutability": "view",
      "type": "function"
    },
    {
      "inputs": [
        {
          "internalType": "address",
          "name": "",
          "type": "address"
        }
      ],
      "name": "energyBalances",
      "outputs": [
        {
          "internalType": "uint256",
          "name": "",
          "type": "uint256"
        }
      ],
      "stateMutability": "view",
      "type": "function"
    },
    {
      "inputs": [],
      "name": "getAllEnergyListed",
      "outputs": [
        {
          "components": [
            {
              "internalType": "address",
              "name": "seller",
              "type": "address"
            },
            {
              "internalType": "uint256",
              "name": "amount",
              "type": "uint256"
            },
            {
              "internalType": "uint256",
              "name": "pricePerUnit",
              "type": "uint256"
            },
            {
              "internalType": "bool",
              "name": "active",
              "type": "bool"
            }
          ],
          "internalType": "struct DecentralizedResource.EnergyListing[]",
          "name": "",
          "type": "tuple[]"
        }
      ],
      "stateMutability": "view",
      "type": "function"
    },
    {
      "inputs": [],
      "name": "getAllEnergySold",
      "outputs": [
        {
          "components": [
            {
              "internalType": "address",
              "name": "buyer",
              "type": "address"
            },
            {
              "internalType": "uint256",
              "name": "amount",
              "type": "uint256"
            },
            {
              "internalType": "uint256",
              "name": "price",
              "type": "uint256"
            }
          ],
          "internalType": "struct DecentralizedResource.Purchases[]",
          "name": "",
          "type": "tuple[]"
        }
      ],
      "stateMutability": "view",
      "type": "function"
    },
    {
      "inputs": [
        {
          "internalType": "uint256",
          "name": "_amount",
          "type": "uint256"
        },
        {
          "internalType": "uint256",
          "name": "_pricePerUnit",
          "type": "uint256"
        }
      ],
      "name": "listEnergy",
      "outputs": [],
      "stateMutability": "nonpayable",
      "type": "function"
    },
    {
      "inputs": [],
      "name": "listingCount",
      "outputs": [
        {
          "internalType": "uint256",
          "name": "",
          "type": "uint256"
        }
      ],
      "stateMutability": "view",
      "type": "function"
    },
    {
      "inputs": [
        {
          "internalType": "uint256",
          "name": "",
          "type": "uint256"
        }
      ],
      "name": "listingIds",
      "outputs": [
        {
          "internalType": "uint256",
          "name": "",
          "type": "uint256"
        }
      ],
      "stateMutability": "view",
      "type": "function"
    },
    {
      "inputs": [
        {
          "internalType": "uint256",
          "name": "",
          "type": "uint256"
        }
      ],
      "name": "listings",
      "outputs": [
        {
          "internalType": "address",
          "name": "seller",
          "type": "address"
        },
        {
          "internalType": "uint256",
          "name": "amount",
          "type": "uint256"
        },
        {
          "internalType": "uint256",
          "name": "pricePerUnit",
          "type": "uint256"
        },
        {
          "internalType": "bool",
          "name": "active",
          "type": "bool"
        }
      ],
      "stateMutability": "view",
      "type": "function"
    },
    {
      "inputs": [
        {
          "internalType": "address",
          "name": "",
          "type": "address"
        }
      ],
      "name": "pendingWithdrawals",
      "outputs": [
        {
          "internalType": "uint256",
          "name": "",
          "type": "uint256"
        }
      ],
      "stateMutability": "view",
      "type": "function"
    },
    {
      "inputs": [],
      "name": "withDraw",
      "outputs": [],
      "stateMutability": "nonpayable",
      "type": "function"
    }
  ],
  "bytecode": "0x608060405234801561001057600080fd5b50604051611fcd380380611fcd8339818101604052810190610032919061014a565b600073ffffffffffffffffffffffffffffffffffffffff168173ffffffffffffffffffffffffffffffffffffffff16036100a1576040517f08c379a0000000000000000000000000000000000000000000000000000000008152600401610098906101d4565b60405180910390fd5b806000806101000a81548173ffffffffffffffffffffffffffffffffffffffff021916908373ffffffffffffffffffffffffffffffffffffffff160217905550506101f4565b600080fd5b600073ffffffffffffffffffffffffffffffffffffffff82169050919050565b6000610117826100ec565b9050919050565b6101278161010c565b811461013257600080fd5b50565b6000815190506101448161011e565b92915050565b6000602082840312156101605761015f6100e7565b5b600061016e84828501610135565b91505092915050565b600082825260208201905092915050565b7f496e76616c696420746f6b656e20616464726573730000000000000000000000600082015250565b60006101be601583610177565b91506101c982610188565b602082019050919050565b600060208201905081810360008301526101ed816101b1565b9050919050565b611dca806102036000396000f3fe6080604052600436106100a75760003560e01c8063c8a9fb5e11610064578063c8a9fb5e146101c0578063cdb6d52d146101e9578063d77ab8ab14610219578063de74e57b14610256578063ed7653e714610296578063f3f43703146102d3576100a7565b80630fdb1c10146100ac5780631a288d08146100c35780631f3f885d146100ee57806352bea36014610119578063a9b07c2614610156578063ac6c93d714610181575b600080fd5b3480156100b857600080fd5b506100c1610310565b005b3480156100cf57600080fd5b506100d8610596565b6040516100e591906113c3565b60405180910390f35b3480156100fa57600080fd5b5061010361065f565b6040516101109190611504565b60405180910390f35b34801561012557600080fd5b50610140600480360381019061013b9190611557565b6107bc565b60405161014d9190611593565b60405180910390f35b34801561016257600080fd5b5061016b6107e0565b6040516101789190611593565b60405180910390f35b34801561018d57600080fd5b506101a860048036038101906101a39190611557565b6107e6565b6040516101b7939291906115bd565b60405180910390f35b3480156101cc57600080fd5b506101e760048036038101906101e291906115f4565b610840565b005b61020360048036038101906101fe91906115f4565b610a9f565b6040516102109190611643565b60405180910390f35b34801561022557600080fd5b50610240600480360381019061023b919061168a565b610fd8565b60405161024d9190611593565b60405180910390f35b34801561026257600080fd5b5061027d60048036038101906102789190611557565b610ff0565b60405161028d94939291906116b7565b60405180910390f35b3480156102a257600080fd5b506102bd60048036038101906102b8919061168a565b61104d565b6040516102ca9190611593565b60405180910390f35b3480156102df57600080fd5b506102fa60048036038101906102f5919061168a565b611096565b6040516103079190611593565b60405180910390f35b600060149054906101000a900460ff1615610360576040517f08c379a000000000000000000000000000000000000000000000000000000000815260040161035790611759565b60405180910390fd5b6001600060146101000a81548160ff0219169083151502179055506000600860003373ffffffffffffffffffffffffffffffffffffffff1673ffffffffffffffffffffffffffffffffffffffff16815260200190815260200160002054905060008111610402576040517f08c379a00000000000000000000000000000000000000000000000000000000081526004016103f9906117c5565b60405180910390fd5b6000600860003373ffffffffffffffffffffffffffffffffffffffff1673ffffffffffffffffffffffffffffffffffffffff1681526020019081526020016000208190555060008060009054906101000a900473ffffffffffffffffffffffffffffffffffffffff1673ffffffffffffffffffffffffffffffffffffffff1663a9059cbb33846040518363ffffffff1660e01b81526004016104a59291906117e5565b6020604051808303816000875af11580156104c4573d6000803e3d6000fd5b505050506040513d601f19601f820116820180604052508101906104e8919061183a565b90508061052a576040517f08c379a0000000000000000000000000000000000000000000000000000000008152600401610521906118b3565b60405180910390fd5b3373ffffffffffffffffffffffffffffffffffffffff167fbc158bb64f05d6383aea69bbb0b20c1bbf4b7a18f63359c5649b7c39e29d3884836040516105709190611593565b60405180910390a2505060008060146101000a81548160ff021916908315150217905550565b60606004805480602002602001604051908101604052809291908181526020016000905b8282101561065657838290600052602060002090600302016040518060600160405290816000820160009054906101000a900473ffffffffffffffffffffffffffffffffffffffff1673ffffffffffffffffffffffffffffffffffffffff1673ffffffffffffffffffffffffffffffffffffffff16815260200160018201548152602001600282015481525050815260200190600101906105ba565b50505050905090565b6060600060065467ffffffffffffffff81111561067f5761067e6118d3565b5b6040519080825280602002602001820160405280156106b857816020015b6106a5611238565b81526020019060019003908161069d5790505b50905060005b6006548110156107b45760026000600383815481106106e0576106df611902565b5b906000526020600020015481526020019081526020016000206040518060800160405290816000820160009054906101000a900473ffffffffffffffffffffffffffffffffffffffff1673ffffffffffffffffffffffffffffffffffffffff1673ffffffffffffffffffffffffffffffffffffffff16815260200160018201548152602001600282015481526020016003820160009054906101000a900460ff16151515158152505082828151811061079c5761079b611902565b5b602002602001018190525080806001019150506106be565b508091505090565b600381815481106107cc57600080fd5b906000526020600020016000915090505481565b60065481565b600481815481106107f657600080fd5b90600052602060002090600302016000915090508060000160009054906101000a900473ffffffffffffffffffffffffffffffffffffffff16908060010154908060020154905083565b600060149054906101000a900460ff1615610890576040517f08c379a000000000000000000000000000000000000000000000000000000000815260040161088790611759565b60405180910390fd5b6001600060146101000a81548160ff021916908315150217905550600082116108ee576040517f08c379a00000000000000000000000000000000000000000000000000000000081526004016108e59061197d565b60405180910390fd5b60008111610931576040517f08c379a0000000000000000000000000000000000000000000000000000000008152600401610928906119e9565b60405180910390fd5b6000600654905060405180608001604052803373ffffffffffffffffffffffffffffffffffffffff168152602001848152602001838152602001600115158152506002600083815260200190815260200160002060008201518160000160006101000a81548173ffffffffffffffffffffffffffffffffffffffff021916908373ffffffffffffffffffffffffffffffffffffffff160217905550602082015181600101556040820151816002015560608201518160030160006101000a81548160ff021916908315150217905550905050600381908060018154018082558091505060019003906000526020600020016000909190919091505560066000815480929190610a3f90611a38565b9190505550807fdce237255d5bd98b57c816861c3b76c8e47e10382084f482135e29cb83a534be338585604051610a78939291906115bd565b60405180910390a25060008060146101000a81548160ff0219169083151502179055505050565b60008060149054906101000a900460ff1615610af0576040517f08c379a0000000000000000000000000000000000000000000000000000000008152600401610ae790611759565b60405180910390fd5b6001600060146101000a81548160ff02191690831515021790555060006002600085815260200190815260200160002090508060030160009054906101000a900460ff16610b73576040517f08c379a0000000000000000000000000000000000000000000000000000000008152600401610b6a90611acc565b60405180910390fd5b8060010154831115610bba576040517f08c379a0000000000000000000000000000000000000000000000000000000008152600401610bb190611b38565b60405180910390fd5b6000816002015484610bcc9190611b58565b90508060008054906101000a900473ffffffffffffffffffffffffffffffffffffffff1673ffffffffffffffffffffffffffffffffffffffff166370a08231336040518263ffffffff1660e01b8152600401610c289190611b9a565b602060405180830381865afa158015610c45573d6000803e3d6000fd5b505050506040513d601f19601f82011682018060405250810190610c699190611bca565b1015610caa576040517f08c379a0000000000000000000000000000000000000000000000000000000008152600401610ca190611c43565b60405180910390fd5b60008060009054906101000a900473ffffffffffffffffffffffffffffffffffffffff1673ffffffffffffffffffffffffffffffffffffffff166323b872dd338560000160009054906101000a900473ffffffffffffffffffffffffffffffffffffffff16856040518463ffffffff1660e01b8152600401610d2e93929190611c63565b6020604051808303816000875af1158015610d4d573d6000803e3d6000fd5b505050506040513d601f19601f82011682018060405250810190610d71919061183a565b905080610db3576040517f08c379a0000000000000000000000000000000000000000000000000000000008152600401610daa90611d0c565b60405180910390fd5b84836001016000828254610dc79190611d2c565b925050819055506000836001015403610df85760008360030160006101000a81548160ff0219169083151502179055505b81600860008560000160009054906101000a900473ffffffffffffffffffffffffffffffffffffffff1673ffffffffffffffffffffffffffffffffffffffff1673ffffffffffffffffffffffffffffffffffffffff1681526020019081526020016000206000828254610e6b9190611d60565b92505081905550600560003373ffffffffffffffffffffffffffffffffffffffff1673ffffffffffffffffffffffffffffffffffffffff16815260200190815260200160002060405180606001604052803373ffffffffffffffffffffffffffffffffffffffff16815260200187815260200184815250908060018154018082558091505060019003906000526020600020906003020160009091909190915060008201518160000160006101000a81548173ffffffffffffffffffffffffffffffffffffffff021916908373ffffffffffffffffffffffffffffffffffffffff16021790555060208201518160010155604082015181600201555050610f77338685600201546110ae565b857fca257078ef5cd23527d1af349a61e189d010869d5b36ebcbb53dc41d49ff988d3387604051610fa99291906117e5565b60405180910390a26001935050505060008060146101000a81548160ff02191690831515021790555092915050565b60076020528060005260406000206000915090505481565b60026020528060005260406000206000915090508060000160009054906101000a900473ffffffffffffffffffffffffffffffffffffffff16908060010154908060020154908060030160009054906101000a900460ff16905084565b6000600760008373ffffffffffffffffffffffffffffffffffffffff1673ffffffffffffffffffffffffffffffffffffffff168152602001908152602001600020549050919050565b60086020528060005260406000206000915090505481565b600060405180606001604052808573ffffffffffffffffffffffffffffffffffffffff168152602001848152602001838152509050600560008573ffffffffffffffffffffffffffffffffffffffff1673ffffffffffffffffffffffffffffffffffffffff16815260200190815260200160002081908060018154018082558091505060019003906000526020600020906003020160009091909190915060008201518160000160006101000a81548173ffffffffffffffffffffffffffffffffffffffff021916908373ffffffffffffffffffffffffffffffffffffffff16021790555060208201518160010155604082015181600201555050600481908060018154018082558091505060019003906000526020600020906003020160009091909190915060008201518160000160006101000a81548173ffffffffffffffffffffffffffffffffffffffff021916908373ffffffffffffffffffffffffffffffffffffffff1602179055506020820151816001015560408201518160020155505050505050565b6040518060800160405280600073ffffffffffffffffffffffffffffffffffffffff16815260200160008152602001600081526020016000151581525090565b600081519050919050565b600082825260208201905092915050565b6000819050602082019050919050565b600073ffffffffffffffffffffffffffffffffffffffff82169050919050565b60006112cf826112a4565b9050919050565b6112df816112c4565b82525050565b6000819050919050565b6112f8816112e5565b82525050565b60608201600082015161131460008501826112d6565b50602082015161132760208501826112ef565b50604082015161133a60408501826112ef565b50505050565b600061134c83836112fe565b60608301905092915050565b6000602082019050919050565b600061137082611278565b61137a8185611283565b935061138583611294565b8060005b838110156113b657815161139d8882611340565b97506113a883611358565b925050600181019050611389565b5085935050505092915050565b600060208201905081810360008301526113dd8184611365565b905092915050565b600081519050919050565b600082825260208201905092915050565b6000819050602082019050919050565b60008115159050919050565b61142681611411565b82525050565b60808201600082015161144260008501826112d6565b50602082015161145560208501826112ef565b50604082015161146860408501826112ef565b50606082015161147b606085018261141d565b50505050565b600061148d838361142c565b60808301905092915050565b6000602082019050919050565b60006114b1826113e5565b6114bb81856113f0565b93506114c683611401565b8060005b838110156114f75781516114de8882611481565b97506114e983611499565b9250506001810190506114ca565b5085935050505092915050565b6000602082019050818103600083015261151e81846114a6565b905092915050565b600080fd5b611534816112e5565b811461153f57600080fd5b50565b6000813590506115518161152b565b92915050565b60006020828403121561156d5761156c611526565b5b600061157b84828501611542565b91505092915050565b61158d816112e5565b82525050565b60006020820190506115a86000830184611584565b92915050565b6115b7816112c4565b82525050565b60006060820190506115d260008301866115ae565b6115df6020830185611584565b6115ec6040830184611584565b949350505050565b6000806040838503121561160b5761160a611526565b5b600061161985828601611542565b925050602061162a85828601611542565b9150509250929050565b61163d81611411565b82525050565b60006020820190506116586000830184611634565b92915050565b611667816112c4565b811461167257600080fd5b50565b6000813590506116848161165e565b92915050565b6000602082840312156116a05761169f611526565b5b60006116ae84828501611675565b91505092915050565b60006080820190506116cc60008301876115ae565b6116d96020830186611584565b6116e66040830185611584565b6116f36060830184611634565b95945050505050565b600082825260208201905092915050565b7f4e6f7420616c6c6f77656420746f2072652d656e746572000000000000000000600082015250565b60006117436017836116fc565b915061174e8261170d565b602082019050919050565b6000602082019050818103600083015261177281611736565b9050919050565b7f4e6f7468696e6720746f20776974686472617700000000000000000000000000600082015250565b60006117af6013836116fc565b91506117ba82611779565b602082019050919050565b600060208201905081810360008301526117de816117a2565b9050919050565b60006040820190506117fa60008301856115ae565b6118076020830184611584565b9392505050565b61181781611411565b811461182257600080fd5b50565b6000815190506118348161180e565b92915050565b6000602082840312156118505761184f611526565b5b600061185e84828501611825565b91505092915050565b7f5769746864726177616c206661696c6564000000000000000000000000000000600082015250565b600061189d6011836116fc565b91506118a882611867565b602082019050919050565b600060208201905081810360008301526118cc81611890565b9050919050565b7f4e487b7100000000000000000000000000000000000000000000000000000000600052604160045260246000fd5b7f4e487b7100000000000000000000000000000000000000000000000000000000600052603260045260246000fd5b7f416d6f756e74206d7573742062652067726561746572207468616e2030000000600082015250565b6000611967601d836116fc565b915061197282611931565b602082019050919050565b600060208201905081810360008301526119968161195a565b9050919050565b7f5072696365206d7573742062652067726561746572207468616e203000000000600082015250565b60006119d3601c836116fc565b91506119de8261199d565b602082019050919050565b60006020820190508181036000830152611a02816119c6565b9050919050565b7f4e487b7100000000000000000000000000000000000000000000000000000000600052601160045260246000fd5b6000611a43826112e5565b91507fffffffffffffffffffffffffffffffffffffffffffffffffffffffffffffffff8203611a7557611a74611a09565b5b600182019050919050565b7f556e6974206e6f7420617661696c61626c650000000000000000000000000000600082015250565b6000611ab66012836116fc565b9150611ac182611a80565b602082019050919050565b60006020820190508181036000830152611ae581611aa9565b9050919050565b7f4e6f7420656e6f75676820656e6572677920617661696c61626c650000000000600082015250565b6000611b22601b836116fc565b9150611b2d82611aec565b602082019050919050565b60006020820190508181036000830152611b5181611b15565b9050919050565b6000611b63826112e5565b9150611b6e836112e5565b9250828202611b7c816112e5565b91508282048414831517611b9357611b92611a09565b5b5092915050565b6000602082019050611baf60008301846115ae565b92915050565b600081519050611bc48161152b565b92915050565b600060208284031215611be057611bdf611526565b5b6000611bee84828501611bb5565b91505092915050565b7f496e73756666696369656e742062616c616e6365000000000000000000000000600082015250565b6000611c2d6014836116fc565b9150611c3882611bf7565b602082019050919050565b60006020820190508181036000830152611c5c81611c20565b9050919050565b6000606082019050611c7860008301866115ae565b611c8560208301856115ae565b611c926040830184611584565b949350505050565b7f5472616e73666572206661696c65642c205061796d656e74206e6f742065786560008201527f6375746564000000000000000000000000000000000000000000000000000000602082015250565b6000611cf66025836116fc565b9150611d0182611c9a565b604082019050919050565b60006020820190508181036000830152611d2581611ce9565b9050919050565b6000611d37826112e5565b9150611d42836112e5565b9250828203905081811115611d5a57611d59611a09565b5b92915050565b6000611d6b826112e5565b9150611d76836112e5565b9250828201905080821115611d8e57611d8d611a09565b5b9291505056fea2646970667358221220d2835a0083f60d05ed41c434a9a2cafba8e901019dc99e16189eead393ebab1d64736f6c634300081b0033",
  "linkReferences": {},
  "deployedLinkReferences": {}
}