{
  "_format": "hh-sol-artifact-1",
  "contractName": "EnergyToken",
  "sourceName": "contracts/ERC20.sol",
  "abi": [
    {
      "inputs": [
        {
          "internalType": "string",
          "name": "_name",
          "type": "string"
        },
        {
          "internalType": "string",
          "name": "_symbol",
          "type": "string"
        }
      ],
      "stateMutability": "nonpayable",
      "type": "constructor"
    },
    {
      "anonymous": false,
      "inputs": [
        {
          "indexed": true,
          "internalType": "address",
          "name": "owner",
          "type": "address"
        },
        {
          "indexed": true,
          "internalType": "address",
          "name": "spender",
          "type": "address"
        },
        {
          "indexed": false,
          "internalType": "uint256",
          "name": "value",
          "type": "uint256"
        }
      ],
      "name": "Approval",
      "type": "event"
    },
    {
      "anonymous": false,
      "inputs": [
        {
          "indexed": true,
          "internalType": "address",
          "name": "from",
          "type": "address"
        },
        {
          "indexed": true,
          "internalType": "address",
          "name": "to",
          "type": "address"
        },
        {
          "indexed": false,
          "internalType": "uint256",
          "name": "value",
          "type": "uint256"
        }
      ],
      "name": "Transfer",
      "type": "event"
    },
    {
      "inputs": [
        {
          "internalType": "address",
          "name": "tokenOwner",
          "type": "address"
        },
        {
          "internalType": "address",
          "name": "spender",
          "type": "address"
        }
      ],
      "name": "allowance",
      "outputs": [
        {
          "internalType": "uint256",
          "name": "",
          "type": "uint256"
        }
      ],
      "stateMutability": "view",
      "type": "function"
    },
    {
      "inputs": [
        {
          "internalType": "address",
          "name": "",
          "type": "address"
        },
        {
          "internalType": "address",
          "name": "",
          "type": "address"
        }
      ],
      "name": "allowances",
      "outputs": [
        {
          "internalType": "uint256",
          "name": "",
          "type": "uint256"
        }
      ],
      "stateMutability": "view",
      "type": "function"
    },
    {
      "inputs": [
        {
          "internalType": "address",
          "name": "spender",
          "type": "address"
        },
        {
          "internalType": "uint256",
          "name": "value",
          "type": "uint256"
        }
      ],
      "name": "approve",
      "outputs": [
        {
          "internalType": "bool",
          "name": "",
          "type": "bool"
        }
      ],
      "stateMutability": "nonpayable",
      "type": "function"
    },
    {
      "inputs": [
        {
          "internalType": "address",
          "name": "account",
          "type": "address"
        }
      ],
      "name": "balanceOf",
      "outputs": [
        {
          "internalType": "uint256",
          "name": "",
          "type": "uint256"
        }
      ],
      "stateMutability": "view",
      "type": "function"
    },
    {
      "inputs": [
        {
          "internalType": "address",
          "name": "",
          "type": "address"
        }
      ],
      "name": "balances",
      "outputs": [
        {
          "internalType": "uint256",
          "name": "",
          "type": "uint256"
        }
      ],
      "stateMutability": "view",
      "type": "function"
    },
    {
      "inputs": [],
      "name": "getTotalSupply",
      "outputs": [
        {
          "internalType": "uint256",
          "name": "",
          "type": "uint256"
        }
      ],
      "stateMutability": "view",
      "type": "function"
    },
    {
      "inputs": [],
      "name": "owner",
      "outputs": [
        {
          "internalType": "address",
          "name": "",
          "type": "address"
        }
      ],
      "stateMutability": "view",
      "type": "function"
    },
    {
      "inputs": [],
      "name": "tokenName",
      "outputs": [
        {
          "internalType": "string",
          "name": "",
          "type": "string"
        }
      ],
      "stateMutability": "view",
      "type": "function"
    },
    {
      "inputs": [],
      "name": "tokenSymbol",
      "outputs": [
        {
          "internalType": "string",
          "name": "",
          "type": "string"
        }
      ],
      "stateMutability": "view",
      "type": "function"
    },
    {
      "inputs": [],
      "name": "totalSupply",
      "outputs": [
        {
          "internalType": "uint256",
          "name": "",
          "type": "uint256"
        }
      ],
      "stateMutability": "view",
      "type": "function"
    },
    {
      "inputs": [
        {
          "internalType": "address",
          "name": "to",
          "type": "address"
        },
        {
          "internalType": "uint256",
          "name": "value",
          "type": "uint256"
        }
      ],
      "name": "transfer",
      "outputs": [
        {
          "internalType": "bool",
          "name": "",
          "type": "bool"
        }
      ],
      "stateMutability": "nonpayable",
      "type": "function"
    },
    {
      "inputs": [
        {
          "internalType": "address",
          "name": "from",
          "type": "address"
        },
        {
          "internalType": "address",
          "name": "to",
          "type": "address"
        },
        {
          "internalType": "uint256",
          "name": "value",
          "type": "uint256"
        }
      ],
      "name": "transferFrom",
      "outputs": [
        {
          "internalType": "bool",
          "name": "",
          "type": "bool"
        }
      ],
      "stateMutability": "nonpayable",
      "type": "function"
    }
  ],
  "bytecode": "0x608060405234801561001057600080fd5b5060405161155f38038061155f8339818101604052810190610032919061028a565b81600090816100419190610523565b5080600190816100519190610523565b5033600360006101000a81548173ffffffffffffffffffffffffffffffffffffffff021916908373ffffffffffffffffffffffffffffffffffffffff1602179055506b033b2e3c9fd0803ce800000060028190555060025460046000600360009054906101000a900473ffffffffffffffffffffffffffffffffffffffff1673ffffffffffffffffffffffffffffffffffffffff1673ffffffffffffffffffffffffffffffffffffffff1681526020019081526020016000208190555050506105f5565b6000604051905090565b600080fd5b600080fd5b600080fd5b600080fd5b6000601f19601f8301169050919050565b7f4e487b7100000000000000000000000000000000000000000000000000000000600052604160045260246000fd5b61017c82610133565b810181811067ffffffffffffffff8211171561019b5761019a610144565b5b80604052505050565b60006101ae610115565b90506101ba8282610173565b919050565b600067ffffffffffffffff8211156101da576101d9610144565b5b6101e382610133565b9050602081019050919050565b60005b8381101561020e5780820151818401526020810190506101f3565b60008484015250505050565b600061022d610228846101bf565b6101a4565b9050828152602081018484840111156102495761024861012e565b5b6102548482856101f0565b509392505050565b600082601f83011261027157610270610129565b5b815161028184826020860161021a565b91505092915050565b600080604083850312156102a1576102a061011f565b5b600083015167ffffffffffffffff8111156102bf576102be610124565b5b6102cb8582860161025c565b925050602083015167ffffffffffffffff8111156102ec576102eb610124565b5b6102f88582860161025c565b9150509250929050565b600081519050919050565b7f4e487b7100000000000000000000000000000000000000000000000000000000600052602260045260246000fd5b6000600282049050600182168061035457607f821691505b6020821081036103675761036661030d565b5b50919050565b60008190508160005260206000209050919050565b60006020601f8301049050919050565b600082821b905092915050565b6000600883026103cf7fffffffffffffffffffffffffffffffffffffffffffffffffffffffffffffffff82610392565b6103d98683610392565b95508019841693508086168417925050509392505050565b6000819050919050565b6000819050919050565b600061042061041b610416846103f1565b6103fb565b6103f1565b9050919050565b6000819050919050565b61043a83610405565b61044e61044682610427565b84845461039f565b825550505050565b600090565b610463610456565b61046e818484610431565b505050565b5b818110156104925761048760008261045b565b600181019050610474565b5050565b601f8211156104d7576104a88161036d565b6104b184610382565b810160208510156104c0578190505b6104d46104cc85610382565b830182610473565b50505b505050565b600082821c905092915050565b60006104fa600019846008026104dc565b1980831691505092915050565b600061051383836104e9565b9150826002028217905092915050565b61052c82610302565b67ffffffffffffffff81111561054557610544610144565b5b61054f825461033c565b61055a828285610496565b600060209050601f83116001811461058d576000841561057b578287015190505b6105858582610507565b8655506105ed565b601f19841661059b8661036d565b60005b828110156105c35784890151825560018201915060208501945060208101905061059e565b868310156105e057848901516105dc601f8916826104e9565b8355505b6001600288020188555050505b505050505050565b610f5b806106046000396000f3fe608060405234801561001057600080fd5b50600436106100b45760003560e01c806370a082311161007157806370a08231146101b55780637b61c320146101e55780638da5cb5b14610203578063a9059cbb14610221578063c4e41b2214610251578063dd62ed3e1461026f576100b4565b8063095ea7b3146100b957806318160ddd146100e957806323b872dd1461010757806327e235e31461013757806355b6ed5c146101675780636c02a93114610197575b600080fd5b6100d360048036038101906100ce9190610b1a565b61029f565b6040516100e09190610b75565b60405180910390f35b6100f1610391565b6040516100fe9190610b9f565b60405180910390f35b610121600480360381019061011c9190610bba565b610397565b60405161012e9190610b75565b60405180910390f35b610151600480360381019061014c9190610c0d565b610689565b60405161015e9190610b9f565b60405180910390f35b610181600480360381019061017c9190610c3a565b6106a1565b60405161018e9190610b9f565b60405180910390f35b61019f6106c6565b6040516101ac9190610d0a565b60405180910390f35b6101cf60048036038101906101ca9190610c0d565b610754565b6040516101dc9190610b9f565b60405180910390f35b6101ed61079d565b6040516101fa9190610d0a565b60405180910390f35b61020b61082b565b6040516102189190610d3b565b60405180910390f35b61023b60048036038101906102369190610b1a565b610851565b6040516102489190610b75565b60405180910390f35b6102596109f0565b6040516102669190610b9f565b60405180910390f35b61028960048036038101906102849190610c3a565b6109fa565b6040516102969190610b9f565b60405180910390f35b600081600560003373ffffffffffffffffffffffffffffffffffffffff1673ffffffffffffffffffffffffffffffffffffffff16815260200190815260200160002060008573ffffffffffffffffffffffffffffffffffffffff1673ffffffffffffffffffffffffffffffffffffffff168152602001908152602001600020819055508273ffffffffffffffffffffffffffffffffffffffff163373ffffffffffffffffffffffffffffffffffffffff167f8c5be1e5ebec7d5bd14f71427d1e84f3dd0314c0f7b2291e5b200ac8c7c3b9258460405161037f9190610b9f565b60405180910390a36001905092915050565b60025481565b600081600460008673ffffffffffffffffffffffffffffffffffffffff1673ffffffffffffffffffffffffffffffffffffffff16815260200190815260200160002054101561041b576040517f08c379a000000000000000000000000000000000000000000000000000000000815260040161041290610da2565b60405180910390fd5b81600560008673ffffffffffffffffffffffffffffffffffffffff1673ffffffffffffffffffffffffffffffffffffffff16815260200190815260200160002060003373ffffffffffffffffffffffffffffffffffffffff1673ffffffffffffffffffffffffffffffffffffffff1681526020019081526020016000205410156104da576040517f08c379a00000000000000000000000000000000000000000000000000000000081526004016104d190610e0e565b60405180910390fd5b81600460008673ffffffffffffffffffffffffffffffffffffffff1673ffffffffffffffffffffffffffffffffffffffff16815260200190815260200160002060008282546105299190610e5d565b9250508190555081600460008573ffffffffffffffffffffffffffffffffffffffff1673ffffffffffffffffffffffffffffffffffffffff168152602001908152602001600020600082825461057f9190610e91565b9250508190555081600560008673ffffffffffffffffffffffffffffffffffffffff1673ffffffffffffffffffffffffffffffffffffffff16815260200190815260200160002060003373ffffffffffffffffffffffffffffffffffffffff1673ffffffffffffffffffffffffffffffffffffffff16815260200190815260200160002060008282546106129190610e5d565b925050819055508273ffffffffffffffffffffffffffffffffffffffff168473ffffffffffffffffffffffffffffffffffffffff167fddf252ad1be2c89b69c2b068fc378daa952ba7f163c4a11628f55a4df523b3ef846040516106769190610b9f565b60405180910390a3600190509392505050565b60046020528060005260406000206000915090505481565b6005602052816000526040600020602052806000526040600020600091509150505481565b600080546106d390610ef4565b80601f01602080910402602001604051908101604052809291908181526020018280546106ff90610ef4565b801561074c5780601f106107215761010080835404028352916020019161074c565b820191906000526020600020905b81548152906001019060200180831161072f57829003601f168201915b505050505081565b6000600460008373ffffffffffffffffffffffffffffffffffffffff1673ffffffffffffffffffffffffffffffffffffffff168152602001908152602001600020549050919050565b600180546107aa90610ef4565b80601f01602080910402602001604051908101604052809291908181526020018280546107d690610ef4565b80156108235780601f106107f857610100808354040283529160200191610823565b820191906000526020600020905b81548152906001019060200180831161080657829003601f168201915b505050505081565b600360009054906101000a900473ffffffffffffffffffffffffffffffffffffffff1681565b600081600460003373ffffffffffffffffffffffffffffffffffffffff1673ffffffffffffffffffffffffffffffffffffffff1681526020019081526020016000205410156108d5576040517f08c379a00000000000000000000000000000000000000000000000000000000081526004016108cc90610da2565b60405180910390fd5b81600460003373ffffffffffffffffffffffffffffffffffffffff1673ffffffffffffffffffffffffffffffffffffffff16815260200190815260200160002060008282546109249190610e5d565b9250508190555081600460008573ffffffffffffffffffffffffffffffffffffffff1673ffffffffffffffffffffffffffffffffffffffff168152602001908152602001600020600082825461097a9190610e91565b925050819055508273ffffffffffffffffffffffffffffffffffffffff163373ffffffffffffffffffffffffffffffffffffffff167fddf252ad1be2c89b69c2b068fc378daa952ba7f163c4a11628f55a4df523b3ef846040516109de9190610b9f565b60405180910390a36001905092915050565b6000600254905090565b6000600560008473ffffffffffffffffffffffffffffffffffffffff1673ffffffffffffffffffffffffffffffffffffffff16815260200190815260200160002060008373ffffffffffffffffffffffffffffffffffffffff1673ffffffffffffffffffffffffffffffffffffffff16815260200190815260200160002054905092915050565b600080fd5b600073ffffffffffffffffffffffffffffffffffffffff82169050919050565b6000610ab182610a86565b9050919050565b610ac181610aa6565b8114610acc57600080fd5b50565b600081359050610ade81610ab8565b92915050565b6000819050919050565b610af781610ae4565b8114610b0257600080fd5b50565b600081359050610b1481610aee565b92915050565b60008060408385031215610b3157610b30610a81565b5b6000610b3f85828601610acf565b9250506020610b5085828601610b05565b9150509250929050565b60008115159050919050565b610b6f81610b5a565b82525050565b6000602082019050610b8a6000830184610b66565b92915050565b610b9981610ae4565b82525050565b6000602082019050610bb46000830184610b90565b92915050565b600080600060608486031215610bd357610bd2610a81565b5b6000610be186828701610acf565b9350506020610bf286828701610acf565b9250506040610c0386828701610b05565b9150509250925092565b600060208284031215610c2357610c22610a81565b5b6000610c3184828501610acf565b91505092915050565b60008060408385031215610c5157610c50610a81565b5b6000610c5f85828601610acf565b9250506020610c7085828601610acf565b9150509250929050565b600081519050919050565b600082825260208201905092915050565b60005b83811015610cb4578082015181840152602081019050610c99565b60008484015250505050565b6000601f19601f8301169050919050565b6000610cdc82610c7a565b610ce68185610c85565b9350610cf6818560208601610c96565b610cff81610cc0565b840191505092915050565b60006020820190508181036000830152610d248184610cd1565b905092915050565b610d3581610aa6565b82525050565b6000602082019050610d506000830184610d2c565b92915050565b7f496e73756666696369656e742062616c616e6365000000000000000000000000600082015250565b6000610d8c601483610c85565b9150610d9782610d56565b602082019050919050565b60006020820190508181036000830152610dbb81610d7f565b9050919050565b7f416c6c6f77616e63652065786365656465640000000000000000000000000000600082015250565b6000610df8601283610c85565b9150610e0382610dc2565b602082019050919050565b60006020820190508181036000830152610e2781610deb565b9050919050565b7f4e487b7100000000000000000000000000000000000000000000000000000000600052601160045260246000fd5b6000610e6882610ae4565b9150610e7383610ae4565b9250828203905081811115610e8b57610e8a610e2e565b5b92915050565b6000610e9c82610ae4565b9150610ea783610ae4565b9250828201905080821115610ebf57610ebe610e2e565b5b92915050565b7f4e487b7100000000000000000000000000000000000000000000000000000000600052602260045260246000fd5b60006002820490506001821680610f0c57607f821691505b602082108103610f1f57610f1e610ec5565b5b5091905056fea2646970667358221220c3995f39e172f55716668224d322ee90db5c9dc40f9baa40140663884bdac70e64736f6c634300081b0033",
  "linkReferences": {},
  "deployedLinkReferences": {}
}